:100000000C942A000C944F050C9478050C94A105CF
:100010000C9447000C9447000C9447000C94470044
:100020000C9447000C9447000C9447000C94470034
:100030000C9447000C9447000C9447000C94470024
:100040000C9447000C9447000C9447000C94470014
:100050000C94470011241FBECFE5D8E0DEBFCDBF12
:1000600010E0A0E6B0E0EEECFEE002C005900D92DC
:10007000A638B107D9F720E0A6E8B0E001C01D928C
:10008000A739B207E1F70E9449000C9465070C9468
:1000900000000E947F0280E090E0089580918D0032
:1000A0000E94E902882321F081E080939000089566
:1000B0001092900008950E94B5040E943C0680931F
:1000C0008D000E94B904089590E0C09708950F93A1
:1000D0001F93CF93DF93CDB7DEB760970FB6F89439
:1000E000DEBF0FBECDBFFE01319680E1DF011D9264
:1000F0008A95E9F78091870090918800892BA9F56E
:1001000080E30E9418074AC09801ADECBCEC0E9445
:100110005607AC0156954795569547955695479580
:10012000CA01880F991F440F551F440F551F440FD4
:10013000551F480F591FC801841B950BAC010E9425
:10014000560796958795969587959695879590935A
:10015000880080938700405DA1E0B0E0AC0FBD1F38
:10016000AE0FBF1F4C93319602C0E0E0F0E000916B
:100170008700109188000115110531F60AC0E1E0F1
:10018000F0E0EC0FFD1FE00FF11F80810E941807C7
:10019000F8018F0101501109EF2B89F760960FB616
:1001A000F894DEBF0FBECDBFDF91CF911F910F91AD
:1001B0000895CF93DF93D62FC42F882329F040E0F2
:1001C00062E083E00E94EF02DD2329F040E063E07B
:1001D00083E00E94EF02CC2329F040E062E081E05E
:1001E0000E94EF02DF91CF9108950E94CA050E94FC
:1001F000CF06409160005091610060916200709163
:10020000630080916400909165000E94BD0440E00D
:1002100060E081E00E94D9004EE450E0BA01CA01DA
:100220000E94420541E065E080E00E94EF0241E06B
:1002300067E080E00E94EF0241E066E080E00E941B
:10024000EF02089541E065E080E00E945C0340E039
:1002500066E080E00E945C0340E067E080E00E948E
:100260005C0310928F0010928E00089540E065E0CC
:1002700080E00E945C0340E066E080E00E945C0356
:1002800041E067E080E00E945C0310928F001092D2
:100290008E00089510928C0010928B0010928A00AC
:1002A000109289001092880010928700109290009E
:1002B000089540E065E080E00E945C0341E066E074
:1002C00080E00E945C0340E067E080E00E945C0305
:1002D0000E940B078EE790E00E94350781E0809333
:1002E0008F000E944A010895809186008B3261F050
:1002F00030F4853209F44AC08A3221F108958D32F2
:1003000091F08F3271F108956091890070918A00A7
:1003100080918B0090918C000E94B602909388008F
:100320008093870008956091890070918A00809180
:100330008B0090918C000E94B9029093880080936A
:10034000870008956091890070918A0080918B00E8
:1003500090918C000E94BC0290938800809387004B
:1003600008956091890070918A006115710519F4F2
:100370000E945901089580918B0090918C000E94F9
:10038000C50290938800809387000895609189004A
:1003900070918A0080918B0090918C000E94C9021C
:1003A0009093880080938700089541E065E080E0A5
:1003B0000E945C0340E066E080E00E945C0340E055
:1003C00067E080E00E945C030E940B0781E080935D
:1003D0008E000E944A0108951F93CF93DF930E94DD
:1003E0005B0080918D000E94CC02811103C00E94AD
:1003F000590138C080918D00833619F40E94D501CF
:1004000031C00E940B070E94360126C020918B004C
:1004100030918C00E901CC0FDD1F220F331F220F1A
:10042000331F220F331FC20FD31F10918D00812F56
:100430000E9464008C0F9D1F90938C0080938B0012
:10044000812F0E9418070E945B0080918D008336E7
:1004500019F40E94D50106C080918D000E94CC0243
:100460008111D4CFDF91CF911F9108951F93CF9326
:10047000DF930E945B0080918D000E94CC02882354
:1004800021F080918D00833619F40E94590133C008
:100490000E94360126C02091890030918A00E9012E
:1004A000CC0FDD1F220F331F220F331F220F331FEC
:1004B000C20FD31F10918D00812F0E9464008C0FFA
:1004C0009D1F90938A0080938900812F0E941807B6
:1004D0000E945B0080918D00833619F40E94D50143
:1004E0000AC080918D000E94CC02882321F0809167
:1004F0009000882381F2DF91CF911F9108950E948F
:10050000F5000E94EC0180918F008111FACF80915B
:100510008E008111F6CF80918D00809386000E941D
:1005200018070E94360280918F008111EACF8091D6
:100530008E008111E6CF0E94740180918F0081119D
:10054000E0CF0E940B070E9467000E9422011092D8
:10055000900010928C0010928B0010928A001092E2
:1005600089001092880010928700CBCF860F971FCA
:100570000895861B970B08959C01269FC001279F15
:10058000900D369F900D112408950E944207CB01D3
:1005900008950E944207089580538A3010F481E044
:1005A000089580E008958B3251F08D3251F08A32F7
:1005B00051F08F3251F0853251F481E0089581E09D
:1005C000089581E0089581E0089581E0089580E034
:1005D00008958D3311F481E0089580E0089581300D
:1005E00001F130F08230B1F1833009F44CC008954C
:1005F00041110CC02AB381E090E002C0880F991F1E
:100600006A95E2F7809582238ABB08952AB381E038
:1006100090E002C0880F991F6A95E2F7822B8ABB8F
:10062000089541110CC027B381E090E002C0880F0B
:10063000991F6A95E2F78095822387BB089527B3B7
:1006400081E090E002C0880F991F6A95E2F7822B43
:1006500087BB089541110CC024B381E090E002C033
:10066000880F991F6A95E2F78095822384BB0895CD
:1006700024B381E090E002C0880F991F6A95E2F7E9
:10068000822B84BB089541110CC021B381E090E01E
:1006900002C0880F991F6A95E2F78095822381BB7B
:1006A000089521B381E090E002C0880F991F6A95F8
:1006B000E2F7822B81BB0895813001F130F0823066
:1006C000B1F1833009F44CC0089541110CC02BB333
:1006D00081E090E002C0880F991F6A95E2F780954B
:1006E00082238BBB08952BB381E090E002C0880F7A
:1006F000991F6A95E2F7822B8BBB089541110CC0BC
:1007000028B381E090E002C0880F991F6A95E2F754
:100710008095822388BB089528B381E090E002C0D1
:10072000880F991F6A95E2F7822B88BB08954111C3
:100730000CC025B381E090E002C0880F991F6A9534
:10074000E2F78095822385BB089525B381E090E090
:1007500002C0880F991F6A95E2F7822B85BB089526
:1007600041110CC022B381E090E002C0880F991FB4
:100770006A95E2F78095822382BB089522B381E0D7
:1007800090E002C0880F991F6A95E2F7822B82BB26
:100790000895813089F028F08230C9F0833011F15A
:1007A00008952BB381E090E002C0880F991F6A95ED
:1007B000E2F782278BBB089528B381E090E002C066
:1007C000880F991F6A95E2F7822788BB089525B3A1
:1007D00081E090E002C0880F991F6A95E2F78227B6
:1007E00085BB089522B381E090E002C0880F991F75
:1007F0006A95E2F7822782BB0895813069F028F07C
:10080000823089F08330B1F00895611102C01ABAC4
:1008100008958FEF8ABB0895611102C017BA089539
:100820008FEF87BB0895611102C014BA08958FEF4E
:1008300084BB0895611102C011BA08958FEF81BB86
:100840000895813041F028F0823039F0833039F05A
:1008500008956BBB089568BB089565BB089562BB9E
:1008600008958130D1F028F0823059F18330E9F1D8
:1008700050C049B381E090E09C01062E02C0220FD7
:10088000331F0A94E2F7842F90E08223932302C05F
:10089000959587956A95E2F7089546B381E090E0D3
:1008A0009C01062E02C0220F331F0A94E2F7842F08
:1008B00090E08223932302C0959587956A95E2F78D
:1008C000089543B381E090E09C01062E02C0220F00
:1008D000331F0A94E2F7842F90E08223932302C00F
:1008E000959587956A95E2F7089540B381E090E089
:1008F0009C01062E02C0220F331F0A94E2F7842FB8
:1009000090E08223932302C0959587956A95E2F73C
:10091000089580E00895813051F028F0823059F038
:10092000833069F008958BB380958BBB089588B3AD
:10093000809588BB089585B3809585BB089582B363
:10094000809582BB0895813041F028F0823039F0E3
:10095000833039F008C089B3089586B3089583B30E
:10096000089580B3089580E008958FB78F778FBF83
:1009700008958FB780688FBF0895CF93DF9300D01D
:1009800000D000D0CDB7DEB749835A836B837C8318
:100990008D839E838FB780688FBF8981863031F5C4
:1009A0008BB780648BBF8C81811107C085B78E7F28
:1009B00085BF85B78D7F85BF1CC0833039F485B76F
:1009C000816085BF85B78D7F85BF13C0813039F4C5
:1009D00085B78E7F85BF85B7826085BF0AC085B722
:1009E000816085BF85B7826085BF03C08BB78F7B71
:1009F0008BBF8A81873031F58BB780688BBF8D8143
:100A0000811107C085B78B7F85BF85B7877F85BF7D
:100A10001CC0833039F485B7846085BF85B7877F74
:100A200085BF13C0813039F485B78B7F85BF85B70B
:100A3000886085BF0AC085B7846085BF85B7886038
:100A400085BF03C08BB78F778BBF8B81853071F4E7
:100A50008BB780628BBF8D81823021F484B7806434
:100A600084BF07C084B78F7B84BF03C08BB78F7DE3
:100A70008BBF26960FB6F894DEBF0FBECDBFDF91B9
:100A8000CF91089590939600809395007093940071
:100A900060939300509392004093910008951F92A9
:100AA0000F920FB60F9211242F933F934F935F93A2
:100AB0006F937F938F939F93AF93BF93EF93FF9326
:100AC000E0919500F0919600309709F00995FF911B
:100AD000EF91BF91AF919F918F917F916F915F91B6
:100AE0004F913F912F910F900FBE0F901F9018952F
:100AF0001F920F920FB60F9211242F933F934F9393
:100B00005F936F937F938F939F93AF93BF93EF9375
:100B1000FF93E0919300F0919400309709F00995CC
:100B2000FF91EF91BF91AF919F918F917F916F91C5
:100B30005F914F913F912F910F900FBE0F901F909B
:100B400018951F920F920FB60F9211242F933F9377
:100B50004F935F936F937F938F939F93AF93BF93C5
:100B6000EF93FF93E0919100F0919200309709F09C
:100B70000995FF91EF91BF91AF919F918F917F91D7
:100B80006F915F914F913F912F910F900FBE0F90FA
:100B90001F901895CF93DF93C0E0D0E011C0FE0105
:100BA000EA58FF4F41E0608182E00E94EF02FE01BF
:100BB000E658FF4F40E0608183E00E94EF022196FB
:100BC000C430D10564F3DF91CF9108951F93CF9383
:100BD000DF93182FC0E0D0E009C0FE01EA58FF4FB4
:100BE000412F608182E00E945C032196C430D105D0
:100BF000A4F3DF91CF911F9108950F931F93CF938B
:100C0000DF9300E010E02FC081E00E94E60540E0A5
:100C1000F801EA58FF4F608182E00E945C0383E0A4
:100C20000E94A304C82FD82FD87ED83E71F083E04D
:100C30000E94A3048C27887ED1F3D83641F0D83A9D
:100C400041F0D83C41F483E007C080E005C081E07A
:100C500003C082E001C084E0882319F081E0800FA6
:100C600006C00F5F1F4F0430110574F28FEFDF9144
:100C7000CF911F910F910895CF9380E00E94E605D8
:100C800083E00E94A304887E883E41F0883641F0CC
:100C9000883A41F0883C41F4C3E007C0C0E005C099
:100CA000C1E003C0C2E001C0C4E0CC2349F30E940C
:100CB000FD05E82FF0E0CF010197EC2FF0E09F0158
:100CC00021503109FC01EE0FFF1FEE0FFF1FEA5903
:100CD000FF4FE20FF31F8081CF91089541E062E062
:100CE00080E00E945C03000040E062E080E00E943F
:100CF0005C030895EF92FF920F931F93CF93DF93BE
:100D0000482F4170982F9270E92EF12CF594E794BA
:100D1000082F047010E015950795159507958870B4
:100D2000C82FD0E0D595C795D595C795D595C795CA
:100D300060E081E00E945C034E2D61E081E00E9452
:100D40005C03402F62E081E00E945C034C2F64E072
:100D500081E00E945C03DF91CF911F910F91FF9082
:100D6000EF900895CF93C82FCF7082958F700E9417
:100D70007A0640E063E080E00E945C030E946E0619
:100D800081E28A95F1F700008C2F0E947A060E947A
:100D90006E0681E28A95F1F70000CF91089541E057
:100DA00060E081E00E94EF0241E061E081E00E94AA
:100DB000EF0241E062E081E00E94EF0241E064E086
:100DC00081E00E94EF0241E063E080E00E94EF02D8
:100DD00041E062E080E00E94EF0240E062E080E0FB
:100DE0000E945C0383E30E94B20682E30E94B20683
:100DF00088E20E94B2068EE00E94B20681E00E9464
:100E0000B20683EF91E00197F1F700C0000086E0A1
:100E10000E94B206089581E00E94B20683E00E941B
:100E2000B20683EF91E00197F1F700C0000008954A
:100E3000CF93C82FCF7082958F700E947A0641E0C1
:100E400063E080E00E945C030E946E0681E28A9566
:100E5000F1F700008C2F0E947A060E946E0681E254
:100E60008A95F1F70000CF910895CF93DF93EC01BD
:100E700003C00E941807219688818111FACFDF9163
:100E8000CF910895AA1BBB1B51E107C0AA1FBB1F2E
:100E9000A617B70710F0A61BB70B881F991F5A9506
:100EA000A9F780959095BC01CD010895A29FB0014E
:100EB000B39FC001A39F700D811D1124911DB29F8E
:0E0EC000700D811D1124911D0895F894FFCF2F
:100ECE000600000201013738392F3435362A313207
:100EDE00332D63303D2B05040302070605034572CF
:060EEE00726F722100008A
:00000001FF
